S018000050726F796563746F5F4D6F64756C6F332E73726563B5
S11300000C9434000C9489010C9451000C9451000C
S11300100C9451000C9451000C9451000C94510018
S11300200C9451000C9451000C9451000C94510008
S11300300C9451000C9451000C9459010C945100EF
S11300400C9451000C9451000C9451000C945100E8
S11300500C9451000C94BB000C9451000C9451006E
S11300600C9451000C94510011241FBECFEFD8E022
S1130070DEBFCDBF11E0A0E0B1E0E8E1F9E002C0ED
S113008005900D92AC3FB107D9F722E0ACEFB1E097
S113009001C01D92A430B207E1F70E9453000C94F2
S11300A08A040C940000F8940E94AC0187E60E9434
S11300B0C6020E94A30178948FE39CE90197F1F7AB
S11300C000C000008091FE018130D9F40E944C02EE
S11300D08FE091E00E94DD026091FF0170910002C7
S11300E080910102909102020E94C6018093030252
S11300F08FE39CE90197F1F700C0000082E0809350
S1130100FE018091FE018091FE01833099F480E02C
S113011091E00E94DD020E947802809103020E9415
S113012061028FE39CE90197F1F700C0000084E0CD
S11301308093FE018091FE018091FE01853011F6CD
S1130140F8940E94B7020E94AB020E945502789470
S11301508FE39CE90197F1F700C000001092FE01C3
S11301601092FF01109200021092010210920202FA
S11301701092FD01A7CF1F920F920FB60F92112478
S11301802F933F934F935F936F938F939F93AF936B
S1130190BF938091780090917900811523E09207B4
S11301A040F13091FD012091FD0141E0311140E029
S11301B031E0223009F030E0432B2091FD0131E0A1
S11301C0243009F030E05091FD0121E0563009F06F
S11301D020E06091FD0151E0683009F050E0342BDB
S11301E0232B11F4552329F02091FD012F5F209337
S11301F0FD018130914010F58091FD012091FD01B8
S113020091E0813009F090E081E0233009F080E052
S1130210982B2091FD0181E0253009F080E0309198
S1130220FD0121E0373009F020E0892B11F422236D
S113023029F08091FD018F5F8093FD018091FD0184
S11302408930B1F481E08093FE018091FF019091A7
S11302500002A0910102B09102020197A109B10923
S11302608093FF0190930002A0930102B0930202D5
S11302708091FF0190910002A0910102B0910202CD
S11302800196A11DB11D8093FF0190930002A093DC
S11302900102B0930202BF91AF919F918F916F9130
S11302A05F914F913F912F910F900FBE0F901F9030
S11302B018951F920F920FB60F9211242F933F930C
S11302C04F935F936F937F938F939F93AF93BF935A
S11302D0EF93FF938091FC01E82FF0E0EE0FFF1FF6
S11302E0E05EFE4F608171810E9489028093FC016F
S11302F0FF91EF91BF91AF919F918F917F916F91FA
S11303005F914F913F912F910F900FBE0F901F90CF
S113031018951F920F920FB60F9211248F9380910C
S1130320FE01823019F483E08093FE018091FE0186
S1130330843019F485E08093FE018F910F900FBEF5
S11303400F901F901895E9E6F0E080818260808329
S11303508DB381608DBB0895ECE7F0E0108280815D
S113036080648083EAE7F0E0808187608083109274
S11303707B0080818062808380818068808380812B
S1130380886080838081806480830895AF92BF9267
S1130390CF92DF92EF92FF920F931F93CF93DF934D
S11303A0CDB7DEB7A6970FB6F894DEBF0FBECDBFAC
S11303B024E1E8EEF1E0DE01119601900D922A9518
S11303C0E1F72EE230E03E8B2D8B28E43AE7388FBC
S11303D02F8B2DE030E03A8F298F0E948B039B01F5
S11303E0AC0160E070E583EC98E40E94EA020E94AC
S11303F05C036B017C019B01ADECBCEC0E943B04F3
S11304008C011695079516950795169507954AE05C
S113041050E0BE01655E7F4FC8010E944A045C0142
S11304209801220F331FC801880F991F880F991F45
S1130430880F991F820F931F9601281B390BC9013E
S11304404AE050E0BE016F5D7F4F0E944A047C0188
S1130450CE0101960E94DD02C5010E94DD02CE019B
S113046045960E94DD02C7010E94DD02CE01479637
S11304700E94DD02802FA6960FB6F894DEBF0FBE51
S1130480CDBFDF91CF911F910F91FF90EF90DF903F
S1130490CF90BF90AF900895EAE7F0E08081877F26
S11304A0808380818F7780830895EAE7F0E08081FC
S11304B08860808380818068808380818064808379
S11304C0089594B5926094BD95B5946095BD282F18
S11304D030E040E050E061E772E080E090E00E94AC
S11304E0190427BDEEE6F0E08081826080830895E0
S11304F084B1886084B9E0EBF0E080818068808317
S1130500808183608083E1EBF0E08081816080837F
S11305100895482F9B01ADECBCEC0E943B049695DA
S1130520879596958795969587955FEF589F900147
S1130530599F300D112436952795ABE7B4E10E94FD
S11305403B04969587958093B30081E0840F8436AD
S113055009F480E00895E1EBF0E080818B7F8083F3
S113056080818D7F808380818E7F8083089585B58F
S11305708B7F85BD85B58D7F85BD85B58E7F85BD1A
S1130580EEE6F0E080818D7F8083089590E0909383
S1130590C5008093C400E1ECF0E080818861808331
S11305A0E2ECF0E080818662808308959091C0003F
S11305B095FFFCCF8093C6000895CF93DF93EC01A1
S11305C003C00E94D602219688818111FACFDF915F
S11305D0CF9108950E94FE020C94DF030E94D80379
S11305E058F00E94D10340F029F45F3F29F00C94A5
S11305F0C80351110C9413040C94CE030E94F0030D
S113060068F39923B1F3552391F3951B550BBB273D
S1130610AA2762177307840738F09F5F5F4F220F82
S1130620331F441FAA1FA9F335D00E2E3AF0E0E879
S113063032D091505040E695001CCAF72BD0FE2FC3
S113064029D0660F771F881FBB1F26173707480757
S1130650AB07B0E809F0BB0B802DBF01FF2793580F
S11306605F4F3AF09E3F510578F00C94C8030C9408
S113067013045F3FE4F3983ED4F38695779567952A
S1130680B795F7959F5FC9F7880F911D9695879544
S113069097F90895E1E0660F771F881FBB1F621763
S11306A073078407BA0720F0621B730B840BBA0B21
S11306B0EE1F88F7E09508950E94F80388F09F578D
S11306C098F0B92F9927B751B0F0E1F0660F771F72
S11306D0881F991F1AF0BA95C9F714C0B13091F068
S11306E00E941204B1E008950C941204672F782F2D
S11306F08827B85F39F0B93FCCF38695779567952D
S1130700B395D9F73EF490958095709561957F4F98
S11307108F4F9F4F0895E89409C097FB3EF490953E
S11307208095709561957F4F8F4F9F4F9923A9F0C6
S1130730F92F96E9BB279395F69587957795679555
S1130740B795F111F8CFFAF4BB0F11F460FF1BC099
S11307506F5F7F4F8F4F9F4F16C0882311F096E92C
S113076011C0772321F09EE8872F762F05C06623DA
S113077071F096E8862F70E060E02AF09A95660F93
S1130780771F881FDAF7880F9695879597F908954C
S113079097F99F6780E870E060E008959FEF80EC30
S11307A0089500240A9416161706180609060895D3
S11307B000240A9412161306140605060895092E39
S11307C00394000C11F4882352F0BB0F40F4BF2BA8
S11307D011F460FF04C06F5F7F4F8F4F9F4F0895E8
S11307E057FD9058440F551F59F05F3F71F04795DE
S11307F0880F97FB991F61F09F3F79F087950895C3
S1130800121613061406551FF2CF4695F1DF08C0E1
S1130810161617061806991FF1CF869571056105FE
S113082008940895E894BB2766277727CB0197F9A6
S11308300895A1E21A2EAA1BBB1BFD010DC0AA1F1D
S1130840BB1FEE1FFF1FA217B307E407F50720F035
S1130850A21BB30BE40BF50B661F771F881F991FB0
S11308601A9469F760957095809590959B01AC01F9
S1130870BD01CF010895A29FB001B39FC001A39F02
S1130880700D811D1124911DB29F700D811D1124C5
S1130890911D08954532510520F4423010F00C9416
S11308A05504FB011082CB010895BB274A3031F473
S11308B0992322F4BDE2909581959F4F0C94610495
S11308C0BB27FB015527AA27880F991FAA1FA41726
S11308D010F0A41B83955051B9F7A05DAA3308F01A
S11308E0A95DA193009779F7B111B1931192CB014E
S11308F00C947A04DC01FC01672F71917723E1F7F2
S1130900329704C07C916D9370836291AE17BF07D8
S10B0910C8F30895F894FFCF29
S11309184D4F444F2053494E54455349530D004DB0
S11309284F444F204D45444943494F4E202D200004
S1130938FA000A0119012901380147015601640125
S1130948720180018D019901A501B001BB01C401A7
S1130958CD01D501DC01E201E801EC01F001F2016D
S1130968F401F401F401F201F001EC01E801E201FF
S1130978DC01D501CD01C401BB01B001A501990178
S11309888D01800172016401560147013801290172
S113099819010A01FA00EA00DB00CB00BC00AD0033
S11309A89E0090008200740067005B004F004400C2
S11309B83900300027001F00180012000C0008003E
S11309C80400020000000000000002000400080007
S11309D80C00120018001F002700300039004400E2
S11309E84F005B0067007400820090009E00AD0019
S11309F8BC00CB00DB00EA004672656375656E6374
S10F0A086961206D65646964613A200036
S9030000FC
